{
  "transactions": [
    {
      "hash": "0xe02077f5d5c67f1c07c4fb09a7b4b14020318af7fb0d59365699bc4a5212b0f6",
      "transactionType": "CALL",
      "contractName": null,
      "contractAddress": "0x8768e4e5c8c3325292a201f824fab86adae398d0",
      "function": "validateAndMintPattern((address,string,bytes,uint256,uint256,uint256,int256,uint256,uint256))",
      "arguments": [
        "(0xFc46DA4cbAbDca9f903863De571E03A39D9079aD, Arbitrage, 0x00000000000000000000000000000000000000000000000000000000000000200000000000000000000000000000000000000000000000000000000000000018486967682d6672657175656e6379206172626974726167650000000000000000, 20, 18, 50000000000000000000, 5000000000000000000, 9500, 1759526674)"
      ],
      "transaction": {
        "from": "0xfc46da4cbabdca9f903863de571e03a39d9079ad",
        "to": "0x8768e4e5c8c3325292a201f824fab86adae398d0",
        "gas": "0xad4af",
        "value": "0x0",
        "input": "0x15db193e0000000000000000000000000000000000000000000000000000000000000020000000000000000000000000fc46da4cbabdca9f903863de571e03a39d9079ad0000000000000000000000000000000000000000000000000000000000000120000000000000000000000000000000000000000000000000000000000000016000000000000000000000000000000000000000000000000000000000000000140000000000000000000000000000000000000000000000000000000000000012000000000000000000000000000000000000000000000002b5e3af16b18800000000000000000000000000000000000000000000000000004563918244f40000000000000000000000000000000000000000000000000000000000000000251c0000000000000000000000000000000000000000000000000000000068e03f1200000000000000000000000000000000000000000000000000000000000000094172626974726167650000000000000000000000000000000000000000000000000000000000000000000000000000000000000000000000000000000000006000000000000000000000000000000000000000000000000000000000000000200000000000000000000000000000000000000000000000000000000000000018486967682d6672657175656e6379206172626974726167650000000000000000",
        "nonce": "0x5",
        "chainId": "0x279f"
      },
      "additionalContracts": [],
      "isFixedGasLimit": false
    },
    {
      "hash": "0x91ec7e0d054ebd2feefdec67c69e15bd4bbb3d02bc6bf7e66e75672f1103ccf5",
      "transactionType": "CALL",
      "contractName": null,
      "contractAddress": "0x8768e4e5c8c3325292a201f824fab86adae398d0",
      "function": "validateAndMintPattern((address,string,bytes,uint256,uint256,uint256,int256,uint256,uint256))",
      "arguments": [
        "(0xFc46DA4cbAbDca9f903863De571E03A39D9079aD, Momentum, 0x000000000000000000000000000000000000000000000000000000000000002000000000000000000000000000000000000000000000000000000000000000194d6f6d656e74756d2074726164696e6720737472617465677900000000000000, 15, 12, 30000000000000000000, 3000000000000000000, 8500, 1759872274)"
      ],
      "transaction": {
        "from": "0xfc46da4cbabdca9f903863de571e03a39d9079ad",
        "to": "0x8768e4e5c8c3325292a201f824fab86adae398d0",
        "gas": "0x97f30",
        "value": "0x0",
        "input": "0x15db193e0000000000000000000000000000000000000000000000000000000000000020000000000000000000000000fc46da4cbabdca9f903863de571e03a39d9079ad00000000000000000000000000000000000000000000000000000000000001200000000000000000000000000000000000000000000000000000000000000160000000000000000000000000000000000000000000000000000000000000000f000000000000000000000000000000000000000000000000000000000000000c000000000000000000000000000000000000000000000001a055690d9db8000000000000000000000000000000000000000000000000000029a2241af62c000000000000000000000000000000000000000000000000000000000000000021340000000000000000000000000000000000000000000000000000000068e5851200000000000000000000000000000000000000000000000000000000000000084d6f6d656e74756d0000000000000000000000000000000000000000000000000000000000000000000000000000000000000000000000000000000000000060000000000000000000000000000000000000000000000000000000000000002000000000000000000000000000000000000000000000000000000000000000194d6f6d656e74756d2074726164696e6720737472617465677900000000000000",
        "nonce": "0x6",
        "chainId": "0x279f"
      },
      "additionalContracts": [],
      "isFixedGasLimit": false
    },
    {
      "hash": "0x91877016692eae340330d3c135282e9b1401b2c7aac44960e7f283a3669bdd0f",
      "transactionType": "CALL",
      "contractName": null,
      "contractAddress": "0xd5499e0d781b123724df253776aa1eb09780afbf",
      "function": "createSimpleDelegation(uint256,uint256,address)",
      "arguments": [
        "4",
        "7500",
        "0xFc46DA4cbAbDca9f903863De571E03A39D9079aD"
      ],
      "transaction": {
        "from": "0xfc46da4cbabdca9f903863de571e03a39d9079ad",
        "to": "0xd5499e0d781b123724df253776aa1eb09780afbf",
        "gas": "0x7bee2",
        "value": "0x0",
        "input": "0x422b3a5600000000000000000000000000000000000000000000000000000000000000040000000000000000000000000000000000000000000000000000000000001d4c000000000000000000000000fc46da4cbabdca9f903863de571e03a39d9079ad",
        "nonce": "0x7",
        "chainId": "0x279f"
      },
      "additionalContracts": [],
      "isFixedGasLimit": false
    },
    {
      "hash": "0x86b86a08bf8cc9357c6204d653c31f82c48e51114a60cabdc3566c980c01b78f",
      "transactionType": "CALL",
      "contractName": null,
      "contractAddress": "0xd5499e0d781b123724df253776aa1eb09780afbf",
      "function": "createSimpleDelegation(uint256,uint256,address)",
      "arguments": [
        "5",
        "5000",
        "0xFc46DA4cbAbDca9f903863De571E03A39D9079aD"
      ],
      "transaction": {
        "from": "0xfc46da4cbabdca9f903863de571e03a39d9079ad",
        "to": "0xd5499e0d781b123724df253776aa1eb09780afbf",
        "gas": "0x6f476",
        "value": "0x0",
        "input": "0x422b3a5600000000000000000000000000000000000000000000000000000000000000050000000000000000000000000000000000000000000000000000000000001388000000000000000000000000fc46da4cbabdca9f903863de571e03a39d9079ad",
        "nonce": "0x8",
        "chainId": "0x279f"
      },
      "additionalContracts": [],
      "isFixedGasLimit": false
    }
  ],
  "receipts": [
    {
      "status": "0x1",
      "cumulativeGasUsed": "0xad4af",
      "logs": [
        {
          "address": "0x8768e4e5c8c3325292a201f824fab86adae398d0",
          "topics": [
            "0x8d3eeeabe87da8d4860a2b080ab15d924f517eba691126906a82a266fd239a1e",
            "0x000000000000000000000000fc46da4cbabdca9f903863de571e03a39d9079ad"
          ],
          "data": "0x0000000000000000000000000000000000000000000000000000000000000060000000000000000000000000000000000000000000000000000000000000251c0000000000000000000000000000000000000000000000000000000068f2b43000000000000000000000000000000000000000000000000000000000000000094172626974726167650000000000000000000000000000000000000000000000",
          "blockHash": "0x701c9e686e3bfd1cd0dc04a5eec7c2cdf2c2df42e6c0925ec0c246301a06dbe1",
          "blockNumber": "0x29c4e1a",
          "blockTimestamp": "0x68f2b430",
          "transactionHash": "0xe02077f5d5c67f1c07c4fb09a7b4b14020318af7fb0d59365699bc4a5212b0f6",
          "transactionIndex": "0x1",
          "logIndex": "0x1",
          "removed": false
        },
        {
          "address": "0x3cebc8049bdac66bfbaecc94cce756122ed25dac",
          "topics": [
            "0xddf252ad1be2c89b69c2b068fc378daa952ba7f163c4a11628f55a4df523b3ef",
            "0x0000000000000000000000000000000000000000000000000000000000000000",
            "0x000000000000000000000000fc46da4cbabdca9f903863de571e03a39d9079ad",
            "0x0000000000000000000000000000000000000000000000000000000000000004"
          ],
          "data": "0x",
          "blockHash": "0x701c9e686e3bfd1cd0dc04a5eec7c2cdf2c2df42e6c0925ec0c246301a06dbe1",
          "blockNumber": "0x29c4e1a",
          "blockTimestamp": "0x68f2b430",
          "transactionHash": "0xe02077f5d5c67f1c07c4fb09a7b4b14020318af7fb0d59365699bc4a5212b0f6",
          "transactionIndex": "0x1",
          "logIndex": "0x2",
          "removed": false
        },
        {
          "address": "0x3cebc8049bdac66bfbaecc94cce756122ed25dac",
          "topics": [
            "0x82813f67f127b12e9d248ed6b261959675f171c3fafe804ea7a44bbf9bd97521",
            "0x0000000000000000000000000000000000000000000000000000000000000004",
            "0x000000000000000000000000fc46da4cbabdca9f903863de571e03a39d9079ad"
          ],
          "data": "0x000000000000000000000000000000000000000000000000000000000000006000000000000000000000000000000000000000000000000000000000000000a00000000000000000000000000000000000000000000000000000000068f2b43000000000000000000000000000000000000000000000000000000000000000094172626974726167650000000000000000000000000000000000000000000000000000000000000000000000000000000000000000000000000000000000006000000000000000000000000000000000000000000000000000000000000000200000000000000000000000000000000000000000000000000000000000000018486967682d6672657175656e6379206172626974726167650000000000000000",
          "blockHash": "0x701c9e686e3bfd1cd0dc04a5eec7c2cdf2c2df42e6c0925ec0c246301a06dbe1",
          "blockNumber": "0x29c4e1a",
          "blockTimestamp": "0x68f2b430",
          "transactionHash": "0xe02077f5d5c67f1c07c4fb09a7b4b14020318af7fb0d59365699bc4a5212b0f6",
          "transactionIndex": "0x1",
          "logIndex": "0x3",
          "removed": false
        },
        {
          "address": "0x3cebc8049bdac66bfbaecc94cce756122ed25dac",
          "topics": [
            "0x9680a7c4b052d0205ba9c3570891f74bb670e625f5ec7b2b145e8fc546866702",
            "0x0000000000000000000000000000000000000000000000000000000000000004"
          ],
          "data": "0x0000000000000000000000000000000000000000000000000000000000002328000000000000000000000000000000000000000000000002b5e3af16b188000000000000000000000000000000000000000000000000000000000000000003e8",
          "blockHash": "0x701c9e686e3bfd1cd0dc04a5eec7c2cdf2c2df42e6c0925ec0c246301a06dbe1",
          "blockNumber": "0x29c4e1a",
          "blockTimestamp": "0x68f2b430",
          "transactionHash": "0xe02077f5d5c67f1c07c4fb09a7b4b14020318af7fb0d59365699bc4a5212b0f6",
          "transactionIndex": "0x1",
          "logIndex": "0x4",
          "removed": false
        },
        {
          "address": "0x8768e4e5c8c3325292a201f824fab86adae398d0",
          "topics": [
            "0x7bfdc623e904d2921803bd9072b362f74e6a6ab0f40a95be130f98e4eaad540e",
            "0x000000000000000000000000fc46da4cbabdca9f903863de571e03a39d9079ad",
            "0x0000000000000000000000000000000000000000000000000000000000000004"
          ],
          "data": "0x00000000000000000000000000000000000000000000000000000000000000800000000000000000000000000000000000000000000000000000000000002328000000000000000000000000000000000000000000000002b5e3af16b188000000000000000000000000000000000000000000000000000000000000000003e800000000000000000000000000000000000000000000000000000000000000094172626974726167650000000000000000000000000000000000000000000000",
          "blockHash": "0x701c9e686e3bfd1cd0dc04a5eec7c2cdf2c2df42e6c0925ec0c246301a06dbe1",
          "blockNumber": "0x29c4e1a",
          "blockTimestamp": "0x68f2b430",
          "transactionHash": "0xe02077f5d5c67f1c07c4fb09a7b4b14020318af7fb0d59365699bc4a5212b0f6",
          "transactionIndex": "0x1",
          "logIndex": "0x5",
          "removed": false
        }
      ],
      "logsBloom": "0x00800000000000000200000000000000000004400000000000000000000000010000000000020000000000000000000000000000000000000000004000000000000000000000000000000008000000040000002000000000100000000000000008000000020000000008000000000800000000000000010000000010004000000000000000000000000000000000000200000000000080000000100000000000000000000000000000000000000000000000800000000000002000400000000000020002000000000000000000000000000000008010000000000000000020000000000000000000000000000000000000000000002000000000000000000000",
      "type": "0x0",
      "transactionHash": "0xe02077f5d5c67f1c07c4fb09a7b4b14020318af7fb0d59365699bc4a5212b0f6",
      "transactionIndex": "0x1",
      "blockHash": "0x701c9e686e3bfd1cd0dc04a5eec7c2cdf2c2df42e6c0925ec0c246301a06dbe1",
      "blockNumber": "0x29c4e1a",
      "gasUsed": "0xad4af",
      "effectiveGasPrice": "0x17bfac7c00",
      "from": "0xfc46da4cbabdca9f903863de571e03a39d9079ad",
      "to": "0x8768e4e5c8c3325292a201f824fab86adae398d0",
      "contractAddress": null
    },
    {
      "status": "0x1",
      "cumulativeGasUsed": "0x1453df",
      "logs": [
        {
          "address": "0x8768e4e5c8c3325292a201f824fab86adae398d0",
          "topics": [
            "0x8d3eeeabe87da8d4860a2b080ab15d924f517eba691126906a82a266fd239a1e",
            "0x000000000000000000000000fc46da4cbabdca9f903863de571e03a39d9079ad"
          ],
          "data": "0x000000000000000000000000000000000000000000000000000000000000006000000000000000000000000000000000000000000000000000000000000021340000000000000000000000000000000000000000000000000000000068f2b43000000000000000000000000000000000000000000000000000000000000000084d6f6d656e74756d000000000000000000000000000000000000000000000000",
          "blockHash": "0x701c9e686e3bfd1cd0dc04a5eec7c2cdf2c2df42e6c0925ec0c246301a06dbe1",
          "blockNumber": "0x29c4e1a",
          "blockTimestamp": "0x68f2b430",
          "transactionHash": "0x91ec7e0d054ebd2feefdec67c69e15bd4bbb3d02bc6bf7e66e75672f1103ccf5",
          "transactionIndex": "0x2",
          "logIndex": "0x6",
          "removed": false
        },
        {
          "address": "0x3cebc8049bdac66bfbaecc94cce756122ed25dac",
          "topics": [
            "0xddf252ad1be2c89b69c2b068fc378daa952ba7f163c4a11628f55a4df523b3ef",
            "0x0000000000000000000000000000000000000000000000000000000000000000",
            "0x000000000000000000000000fc46da4cbabdca9f903863de571e03a39d9079ad",
            "0x0000000000000000000000000000000000000000000000000000000000000005"
          ],
          "data": "0x",
          "blockHash": "0x701c9e686e3bfd1cd0dc04a5eec7c2cdf2c2df42e6c0925ec0c246301a06dbe1",
          "blockNumber": "0x29c4e1a",
          "blockTimestamp": "0x68f2b430",
          "transactionHash": "0x91ec7e0d054ebd2feefdec67c69e15bd4bbb3d02bc6bf7e66e75672f1103ccf5",
          "transactionIndex": "0x2",
          "logIndex": "0x7",
          "removed": false
        },
        {
          "address": "0x3cebc8049bdac66bfbaecc94cce756122ed25dac",
          "topics": [
            "0x82813f67f127b12e9d248ed6b261959675f171c3fafe804ea7a44bbf9bd97521",
            "0x0000000000000000000000000000000000000000000000000000000000000005",
            "0x000000000000000000000000fc46da4cbabdca9f903863de571e03a39d9079ad"
          ],
          "data": "0x000000000000000000000000000000000000000000000000000000000000006000000000000000000000000000000000000000000000000000000000000000a00000000000000000000000000000000000000000000000000000000068f2b43000000000000000000000000000000000000000000000000000000000000000084d6f6d656e74756d0000000000000000000000000000000000000000000000000000000000000000000000000000000000000000000000000000000000000060000000000000000000000000000000000000000000000000000000000000002000000000000000000000000000000000000000000000000000000000000000194d6f6d656e74756d2074726164696e6720737472617465677900000000000000",
          "blockHash": "0x701c9e686e3bfd1cd0dc04a5eec7c2cdf2c2df42e6c0925ec0c246301a06dbe1",
          "blockNumber": "0x29c4e1a",
          "blockTimestamp": "0x68f2b430",
          "transactionHash": "0x91ec7e0d054ebd2feefdec67c69e15bd4bbb3d02bc6bf7e66e75672f1103ccf5",
          "transactionIndex": "0x2",
          "logIndex": "0x8",
          "removed": false
        },
        {
          "address": "0x3cebc8049bdac66bfbaecc94cce756122ed25dac",
          "topics": [
            "0x9680a7c4b052d0205ba9c3570891f74bb670e625f5ec7b2b145e8fc546866702",
            "0x0000000000000000000000000000000000000000000000000000000000000005"
          ],
          "data": "0x0000000000000000000000000000000000000000000000000000000000001f40000000000000000000000000000000000000000000000001a055690d9db8000000000000000000000000000000000000000000000000000000000000000003e8",
          "blockHash": "0x701c9e686e3bfd1cd0dc04a5eec7c2cdf2c2df42e6c0925ec0c246301a06dbe1",
          "blockNumber": "0x29c4e1a",
          "blockTimestamp": "0x68f2b430",
          "transactionHash": "0x91ec7e0d054ebd2feefdec67c69e15bd4bbb3d02bc6bf7e66e75672f1103ccf5",
          "transactionIndex": "0x2",
          "logIndex": "0x9",
          "removed": false
        },
        {
          "address": "0x8768e4e5c8c3325292a201f824fab86adae398d0",
          "topics": [
            "0x7bfdc623e904d2921803bd9072b362f74e6a6ab0f40a95be130f98e4eaad540e",
            "0x000000000000000000000000fc46da4cbabdca9f903863de571e03a39d9079ad",
            "0x0000000000000000000000000000000000000000000000000000000000000005"
          ],
          "data": "0x00000000000000000000000000000000000000000000000000000000000000800000000000000000000000000000000000000000000000000000000000001f40000000000000000000000000000000000000000000000001a055690d9db8000000000000000000000000000000000000000000000000000000000000000003e800000000000000000000000000000000000000000000000000000000000000084d6f6d656e74756d000000000000000000000000000000000000000000000000",
          "blockHash": "0x701c9e686e3bfd1cd0dc04a5eec7c2cdf2c2df42e6c0925ec0c246301a06dbe1",
          "blockNumber": "0x29c4e1a",
          "blockTimestamp": "0x68f2b430",
          "transactionHash": "0x91ec7e0d054ebd2feefdec67c69e15bd4bbb3d02bc6bf7e66e75672f1103ccf5",
          "transactionIndex": "0x2",
          "logIndex": "0xa",
          "removed": false
        }
      ],
      "logsBloom": "0x00800000000000000200000000000000000004400000000000000000000000010000000000020000000000000000000000000000000000000000004000000000000010000000000000000008000000040000002000000000100000000000000000000000020000000008000000000800000000000000010000000010004000000000000000000000000000000000001200000800000080000000100000000000000000000000000000000000000000000000800000000000000000400000000000020002000000000000000000000000000000000010000000000000000020000000000000000000000000000000000000000000002000000000000000000000",
      "type": "0x0",
      "transactionHash": "0x91ec7e0d054ebd2feefdec67c69e15bd4bbb3d02bc6bf7e66e75672f1103ccf5",
      "transactionIndex": "0x2",
      "blockHash": "0x701c9e686e3bfd1cd0dc04a5eec7c2cdf2c2df42e6c0925ec0c246301a06dbe1",
      "blockNumber": "0x29c4e1a",
      "gasUsed": "0x97f30",
      "effectiveGasPrice": "0x17bfac7c00",
      "from": "0xfc46da4cbabdca9f903863de571e03a39d9079ad",
      "to": "0x8768e4e5c8c3325292a201f824fab86adae398d0",
      "contractAddress": null
    },
    {
      "status": "0x1",
      "cumulativeGasUsed": "0x1c12c1",
      "logs": [
        {
          "address": "0xd5499e0d781b123724df253776aa1eb09780afbf",
          "topics": [
            "0xb91dd8e1b5266cc3ead95b747cefa4e3eccca4af2f75e05e5310f2184787f0c3",
            "0x0000000000000000000000000000000000000000000000000000000000000001",
            "0x000000000000000000000000fc46da4cbabdca9f903863de571e03a39d9079ad",
            "0x0000000000000000000000000000000000000000000000000000000000000004"
          ],
          "data": "0x0000000000000000000000000000000000000000000000000000000000001d4c000000000000000000000000fc46da4cbabdca9f903863de571e03a39d9079ad0000000000000000000000000000000000000000000000000000000068f2b430",
          "blockHash": "0x701c9e686e3bfd1cd0dc04a5eec7c2cdf2c2df42e6c0925ec0c246301a06dbe1",
          "blockNumber": "0x29c4e1a",
          "blockTimestamp": "0x68f2b430",
          "transactionHash": "0x91877016692eae340330d3c135282e9b1401b2c7aac44960e7f283a3669bdd0f",
          "transactionIndex": "0x3",
          "logIndex": "0xb",
          "removed": false
        }
      ],
      "logsBloom": "0x00000000000000000000000000000000000004000000000000000000000000000000000000000000000000000000000000000000000000000000000000040000000000000000000000000000000000000000000000040000000000000000000008000000000000000000000000000000000000000000000000000000000000000000000000000000000000000000000000000000000080000000100000000000000000000000000000000000000000000000000000000000002020000002000000000000000000004000000000000020000000008000000000000000020040000000000000000000000000000000000000000000000000000000000000000000",
      "type": "0x0",
      "transactionHash": "0x91877016692eae340330d3c135282e9b1401b2c7aac44960e7f283a3669bdd0f",
      "transactionIndex": "0x3",
      "blockHash": "0x701c9e686e3bfd1cd0dc04a5eec7c2cdf2c2df42e6c0925ec0c246301a06dbe1",
      "blockNumber": "0x29c4e1a",
      "gasUsed": "0x7bee2",
      "effectiveGasPrice": "0x17bfac7c00",
      "from": "0xfc46da4cbabdca9f903863de571e03a39d9079ad",
      "to": "0xd5499e0d781b123724df253776aa1eb09780afbf",
      "contractAddress": null
    },
    {
      "status": "0x1",
      "cumulativeGasUsed": "0x2e48ab",
      "logs": [
        {
          "address": "0xd5499e0d781b123724df253776aa1eb09780afbf",
          "topics": [
            "0xb91dd8e1b5266cc3ead95b747cefa4e3eccca4af2f75e05e5310f2184787f0c3",
            "0x0000000000000000000000000000000000000000000000000000000000000002",
            "0x000000000000000000000000fc46da4cbabdca9f903863de571e03a39d9079ad",
            "0x0000000000000000000000000000000000000000000000000000000000000005"
          ],
          "data": "0x0000000000000000000000000000000000000000000000000000000000001388000000000000000000000000fc46da4cbabdca9f903863de571e03a39d9079ad0000000000000000000000000000000000000000000000000000000068f2b430",
          "blockHash": "0x719ce149e7efc343c344ae918ab7100790e75d699b8554919cc856dbf5df7cfc",
          "blockNumber": "0x29c4e1b",
          "blockTimestamp": "0x68f2b430",
          "transactionHash": "0x86b86a08bf8cc9357c6204d653c31f82c48e51114a60cabdc3566c980c01b78f",
          "transactionIndex": "0x3",
          "logIndex": "0x4",
          "removed": false
        }
      ],
      "logsBloom": "0x04000000000000000000000000000000000004000000000000000000000000000000000000000000000000000000000000000000000000000000000000000000000010000000000000000000000000000000000000000000000000000000000000000000000000000000000000000000000000000000000000000000000000000000000000000000000000000000001000000800000080000000100000000000000000000000000000000100000000000000000000000000000020000002000000000000000000004000000000000020000000000000000000000000020000000000000000000000000000000000000000000000008000000000000000000000",
      "type": "0x0",
      "transactionHash": "0x86b86a08bf8cc9357c6204d653c31f82c48e51114a60cabdc3566c980c01b78f",
      "transactionIndex": "0x3",
      "blockHash": "0x719ce149e7efc343c344ae918ab7100790e75d699b8554919cc856dbf5df7cfc",
      "blockNumber": "0x29c4e1b",
      "gasUsed": "0x6f476",
      "effectiveGasPrice": "0x17bfac7c00",
      "from": "0xfc46da4cbabdca9f903863de571e03a39d9079ad",
      "to": "0xd5499e0d781b123724df253776aa1eb09780afbf",
      "contractAddress": null
    }
  ],
  "libraries": [],
  "pending": [],
  "returns": {},
  "timestamp": 1760736305,
  "chain": 10143,
  "commit": null
}