{
  "transactions": [
    {
      "hash": null,
      "transactionType": "CALL",
      "contractName": null,
      "contractAddress": "0xbbbe055f281ef5d3f6004e0ee2a8447be26e6287",
      "function": "addExecutor(address)",
      "arguments": [
        "0xfBD05eE3e711b03Bb67EEec982E49c81eE1db99D"
      ],
      "transaction": {
        "from": "0xfbd05ee3e711b03bb67eeec982e49c81ee1db99d",
        "to": "0xbbbe055f281ef5d3f6004e0ee2a8447be26e6287",
        "gas": "0x95a3",
        "value": "0x0",
        "input": "0x1f5a0bbe000000000000000000000000fbd05ee3e711b03bb67eeec982e49c81ee1db99d",
        "nonce": "0x13",
        "chainId": "0x279f"
      },
      "additionalContracts": [],
      "isFixedGasLimit": false
    }
  ],
  "receipts": [],
  "libraries": [],
  "pending": [],
  "returns": {},
  "timestamp": 1760553162,
  "chain": 10143,
  "commit": null
}