{
  "transactions": [
    {
      "hash": "0xd72661b2f778e9eafe89382c96d712f0f759a5cc454ebcdf9b6946ea5ac69b71",
      "transactionType": "CALL",
      "contractName": null,
      "contractAddress": "0x8768e4e5c8c3325292a201f824fab86adae398d0",
      "function": "validateAndMintPattern((address,string,bytes,uint256,uint256,uint256,int256,uint256,uint256))",
      "arguments": [
        "(0xfBD05eE3e711b03Bb67EEec982E49c81eE1db99D, Arbitrage, 0x000000000000000000000000000000000000000000000000000000000000002000000000000000000000000000000000000000000000000000000000000000165465737420617262697472616765207061747465726e00000000000000000000, 15, 12, 15000000000000000000, 2000000000000000000, 9000, 1759689082)"
      ],
      "transaction": {
        "from": "0xfbd05ee3e711b03bb67eeec982e49c81ee1db99d",
        "to": "0x8768e4e5c8c3325292a201f824fab86adae398d0",
        "gas": "0x9072d",
        "value": "0x0",
        "input": "0x15db193e0000000000000000000000000000000000000000000000000000000000000020000000000000000000000000fbd05ee3e711b03bb67eeec982e49c81ee1db99d00000000000000000000000000000000000000000000000000000000000001200000000000000000000000000000000000000000000000000000000000000160000000000000000000000000000000000000000000000000000000000000000f000000000000000000000000000000000000000000000000000000000000000c000000000000000000000000000000000000000000000000d02ab486cedc00000000000000000000000000000000000000000000000000001bc16d674ec8000000000000000000000000000000000000000000000000000000000000000023280000000000000000000000000000000000000000000000000000000068e2b97a000000000000000000000000000000000000000000000000000000000000000941726269747261676500000000000000000000000000000000000000000000000000000000000000000000000000000000000000000000000000000000000060000000000000000000000000000000000000000000000000000000000000002000000000000000000000000000000000000000000000000000000000000000165465737420617262697472616765207061747465726e00000000000000000000",
        "nonce": "0x10",
        "chainId": "0x279f"
      },
      "additionalContracts": [],
      "isFixedGasLimit": false
    },
    {
      "hash": "0x63cfb7150ea6ca89e90ac80cdee1ba893a5b41417c8a6d9a9daf7958bc74c23f",
      "transactionType": "CALL",
      "contractName": null,
      "contractAddress": "0x56c145f5567f8db77533c825cf4205f1427c5517",
      "function": "createSimpleDelegation(uint256,uint256,address)",
      "arguments": [
        "3",
        "7500",
        "0xfBD05eE3e711b03Bb67EEec982E49c81eE1db99D"
      ],
      "transaction": {
        "from": "0xfbd05ee3e711b03bb67eeec982e49c81ee1db99d",
        "to": "0x56c145f5567f8db77533c825cf4205f1427c5517",
        "gas": "0x75cf1",
        "value": "0x0",
        "input": "0x422b3a5600000000000000000000000000000000000000000000000000000000000000030000000000000000000000000000000000000000000000000000000000001d4c000000000000000000000000fbd05ee3e711b03bb67eeec982e49c81ee1db99d",
        "nonce": "0x11",
        "chainId": "0x279f"
      },
      "additionalContracts": [],
      "isFixedGasLimit": false
    }
  ],
  "receipts": [
    {
      "status": "0x1",
      "cumulativeGasUsed": "0x9072d",
      "logs": [
        {
          "address": "0x8768e4e5c8c3325292a201f824fab86adae398d0",
          "topics": [
            "0x8d3eeeabe87da8d4860a2b080ab15d924f517eba691126906a82a266fd239a1e",
            "0x000000000000000000000000fbd05ee3e711b03bb67eeec982e49c81ee1db99d"
          ],
          "data": "0x000000000000000000000000000000000000000000000000000000000000006000000000000000000000000000000000000000000000000000000000000023280000000000000000000000000000000000000000000000000000000068efe89900000000000000000000000000000000000000000000000000000000000000094172626974726167650000000000000000000000000000000000000000000000",
          "blockHash": "0xde9d18cb0cf5ea8450ae65f2cbea7ee4e8bfd90cc0197df01fd4379d023c9943",
          "blockNumber": "0x2959e4f",
          "blockTimestamp": "0x68efe899",
          "transactionHash": "0xd72661b2f778e9eafe89382c96d712f0f759a5cc454ebcdf9b6946ea5ac69b71",
          "transactionIndex": "0x1",
          "logIndex": "0x1",
          "removed": false
        },
        {
          "address": "0x3cebc8049bdac66bfbaecc94cce756122ed25dac",
          "topics": [
            "0xddf252ad1be2c89b69c2b068fc378daa952ba7f163c4a11628f55a4df523b3ef",
            "0x0000000000000000000000000000000000000000000000000000000000000000",
            "0x000000000000000000000000fbd05ee3e711b03bb67eeec982e49c81ee1db99d",
            "0x0000000000000000000000000000000000000000000000000000000000000003"
          ],
          "data": "0x",
          "blockHash": "0xde9d18cb0cf5ea8450ae65f2cbea7ee4e8bfd90cc0197df01fd4379d023c9943",
          "blockNumber": "0x2959e4f",
          "blockTimestamp": "0x68efe899",
          "transactionHash": "0xd72661b2f778e9eafe89382c96d712f0f759a5cc454ebcdf9b6946ea5ac69b71",
          "transactionIndex": "0x1",
          "logIndex": "0x2",
          "removed": false
        },
        {
          "address": "0x3cebc8049bdac66bfbaecc94cce756122ed25dac",
          "topics": [
            "0x82813f67f127b12e9d248ed6b261959675f171c3fafe804ea7a44bbf9bd97521",
            "0x0000000000000000000000000000000000000000000000000000000000000003",
            "0x000000000000000000000000fbd05ee3e711b03bb67eeec982e49c81ee1db99d"
          ],
          "data": "0x000000000000000000000000000000000000000000000000000000000000006000000000000000000000000000000000000000000000000000000000000000a00000000000000000000000000000000000000000000000000000000068efe899000000000000000000000000000000000000000000000000000000000000000941726269747261676500000000000000000000000000000000000000000000000000000000000000000000000000000000000000000000000000000000000060000000000000000000000000000000000000000000000000000000000000002000000000000000000000000000000000000000000000000000000000000000165465737420617262697472616765207061747465726e00000000000000000000",
          "blockHash": "0xde9d18cb0cf5ea8450ae65f2cbea7ee4e8bfd90cc0197df01fd4379d023c9943",
          "blockNumber": "0x2959e4f",
          "blockTimestamp": "0x68efe899",
          "transactionHash": "0xd72661b2f778e9eafe89382c96d712f0f759a5cc454ebcdf9b6946ea5ac69b71",
          "transactionIndex": "0x1",
          "logIndex": "0x3",
          "removed": false
        },
        {
          "address": "0x3cebc8049bdac66bfbaecc94cce756122ed25dac",
          "topics": [
            "0x9680a7c4b052d0205ba9c3570891f74bb670e625f5ec7b2b145e8fc546866702",
            "0x0000000000000000000000000000000000000000000000000000000000000003"
          ],
          "data": "0x0000000000000000000000000000000000000000000000000000000000001f40000000000000000000000000000000000000000000000000d02ab486cedc00000000000000000000000000000000000000000000000000000000000000000535",
          "blockHash": "0xde9d18cb0cf5ea8450ae65f2cbea7ee4e8bfd90cc0197df01fd4379d023c9943",
          "blockNumber": "0x2959e4f",
          "blockTimestamp": "0x68efe899",
          "transactionHash": "0xd72661b2f778e9eafe89382c96d712f0f759a5cc454ebcdf9b6946ea5ac69b71",
          "transactionIndex": "0x1",
          "logIndex": "0x4",
          "removed": false
        },
        {
          "address": "0x8768e4e5c8c3325292a201f824fab86adae398d0",
          "topics": [
            "0x7bfdc623e904d2921803bd9072b362f74e6a6ab0f40a95be130f98e4eaad540e",
            "0x000000000000000000000000fbd05ee3e711b03bb67eeec982e49c81ee1db99d",
            "0x0000000000000000000000000000000000000000000000000000000000000003"
          ],
          "data": "0x00000000000000000000000000000000000000000000000000000000000000800000000000000000000000000000000000000000000000000000000000001f40000000000000000000000000000000000000000000000000d02ab486cedc0000000000000000000000000000000000000000000000000000000000000000053500000000000000000000000000000000000000000000000000000000000000094172626974726167650000000000000000000000000000000000000000000000",
          "blockHash": "0xde9d18cb0cf5ea8450ae65f2cbea7ee4e8bfd90cc0197df01fd4379d023c9943",
          "blockNumber": "0x2959e4f",
          "blockTimestamp": "0x68efe899",
          "transactionHash": "0xd72661b2f778e9eafe89382c96d712f0f759a5cc454ebcdf9b6946ea5ac69b71",
          "transactionIndex": "0x1",
          "logIndex": "0x5",
          "removed": false
        }
      ],
      "logsBloom": "0x00800000000000000200000000000000000000400040000000000000000000010000000000020000000000000000000000000000020000000000004000000000000000000000000000000008000000040000002000000000100000000000000000000000020000000008000000000800000000000000010000000010004000000000000000000000000000000000000200000000800000000000000000000000000000000000000000000000000000000000800000800000000000400000400000020002000000000000000000000000000000000010000000000000000020000000000000000000000000000008000000000000002000000000000000000000",
      "type": "0x0",
      "transactionHash": "0xd72661b2f778e9eafe89382c96d712f0f759a5cc454ebcdf9b6946ea5ac69b71",
      "transactionIndex": "0x1",
      "blockHash": "0xde9d18cb0cf5ea8450ae65f2cbea7ee4e8bfd90cc0197df01fd4379d023c9943",
      "blockNumber": "0x2959e4f",
      "gasUsed": "0x9072d",
      "effectiveGasPrice": "0x17bfac7c00",
      "from": "0xfbd05ee3e711b03bb67eeec982e49c81ee1db99d",
      "to": "0x8768e4e5c8c3325292a201f824fab86adae398d0",
      "contractAddress": null
    },
    {
      "status": "0x1",
      "cumulativeGasUsed": "0x10641e",
      "logs": [
        {
          "address": "0x56c145f5567f8db77533c825cf4205f1427c5517",
          "topics": [
            "0xb91dd8e1b5266cc3ead95b747cefa4e3eccca4af2f75e05e5310f2184787f0c3",
            "0x0000000000000000000000000000000000000000000000000000000000000002",
            "0x000000000000000000000000fbd05ee3e711b03bb67eeec982e49c81ee1db99d",
            "0x0000000000000000000000000000000000000000000000000000000000000003"
          ],
          "data": "0x0000000000000000000000000000000000000000000000000000000000001d4c000000000000000000000000fbd05ee3e711b03bb67eeec982e49c81ee1db99d0000000000000000000000000000000000000000000000000000000068efe899",
          "blockHash": "0xde9d18cb0cf5ea8450ae65f2cbea7ee4e8bfd90cc0197df01fd4379d023c9943",
          "blockNumber": "0x2959e4f",
          "blockTimestamp": "0x68efe899",
          "transactionHash": "0x63cfb7150ea6ca89e90ac80cdee1ba893a5b41417c8a6d9a9daf7958bc74c23f",
          "transactionIndex": "0x2",
          "logIndex": "0x6",
          "removed": false
        }
      ],
      "logsBloom": "0x04000000000000000000000000000000000000000040000000000000000000000000000000000000000000000000000000000000020000800000000000000000000000000000000000000000000000000000000000000000000000000080000000000000000000000000000000000000000000000000000000000000000000000000000000000000000000000000000000000000800000000000100000000000000000000000000000000100000000000000000000800000000020000000400000000000000000000000000000000000000000000000000000000000020000000000000000000000000000000008000040000000008000000000000000000000",
      "type": "0x0",
      "transactionHash": "0x63cfb7150ea6ca89e90ac80cdee1ba893a5b41417c8a6d9a9daf7958bc74c23f",
      "transactionIndex": "0x2",
      "blockHash": "0xde9d18cb0cf5ea8450ae65f2cbea7ee4e8bfd90cc0197df01fd4379d023c9943",
      "blockNumber": "0x2959e4f",
      "gasUsed": "0x75cf1",
      "effectiveGasPrice": "0x17bfac7c00",
      "from": "0xfbd05ee3e711b03bb67eeec982e49c81ee1db99d",
      "to": "0x56c145f5567f8db77533c825cf4205f1427c5517",
      "contractAddress": null
    }
  ],
  "libraries": [],
  "pending": [],
  "returns": {},
  "timestamp": 1760553114,
  "chain": 10143,
  "commit": null
}