{
  "transactions": [
    {
      "hash": "0x96da3bc4de2cdf9ca680b4f486d89ff4083a494822ec8761abc004d114daa980",
      "transactionType": "CALL",
      "contractName": null,
      "contractAddress": "0x8768e4e5c8c3325292a201f824fab86adae398d0",
      "function": "updateCooldown(uint256)",
      "arguments": [
        "0"
      ],
      "transaction": {
        "from": "0xfbd05ee3e711b03bb67eeec982e49c81ee1db99d",
        "to": "0x8768e4e5c8c3325292a201f824fab86adae398d0",
        "gas": "0x87d1",
        "value": "0x0",
        "input": "0x55119df90000000000000000000000000000000000000000000000000000000000000000",
        "nonce": "0xf",
        "chainId": "0x279f"
      },
      "additionalContracts": [],
      "isFixedGasLimit": false
    }
  ],
  "receipts": [
    {
      "status": "0x1",
      "cumulativeGasUsed": "0x2b7c15",
      "logs": [
        {
          "address": "0x8768e4e5c8c3325292a201f824fab86adae398d0",
          "topics": [
            "0x5953b565c074c2cce1866b4e69c9efc4908556bb6fca70f735907c94d9405515"
          ],
          "data": "0x0000000000000000000000000000000000000000000000000000000000000e100000000000000000000000000000000000000000000000000000000000000000",
          "blockHash": "0xb1367ade08308c17f30d12bc304b680051807637c9a1d771f93b26e590f3f7b0",
          "blockNumber": "0x2918fdf",
          "blockTimestamp": "0x68ee23ab",
          "transactionHash": "0x96da3bc4de2cdf9ca680b4f486d89ff4083a494822ec8761abc004d114daa980",
          "transactionIndex": "0xf",
          "logIndex": "0x28",
          "removed": false
        }
      ],
      "logsBloom": "0x00000000000000000200000000000000000000000000000000000000000000000000002000020000000000000000000000000000000000000000000000000000000000000000000000000000000000000000000000000000000000000000000000000000000000000000000000000000000000000000000000000000000000000000000000000000000000000000000200000000000000000000000000000000000000000000000000000000000000000000000000000040000000000000000000000000000000000000000000000000000000000000000000000000000000000000000000000000040000000000000000000000000000000000000000000000",
      "type": "0x0",
      "transactionHash": "0x96da3bc4de2cdf9ca680b4f486d89ff4083a494822ec8761abc004d114daa980",
      "transactionIndex": "0xf",
      "blockHash": "0xb1367ade08308c17f30d12bc304b680051807637c9a1d771f93b26e590f3f7b0",
      "blockNumber": "0x2918fdf",
      "gasUsed": "0x87d1",
      "effectiveGasPrice": "0xc1b710800",
      "from": "0xfbd05ee3e711b03bb67eeec982e49c81ee1db99d",
      "to": "0x8768e4e5c8c3325292a201f824fab86adae398d0",
      "contractAddress": null
    }
  ],
  "libraries": [],
  "pending": [],
  "returns": {},
  "timestamp": 1760437164,
  "chain": 10143,
  "commit": null
}